:020000040800F2
:100000000000022089040008D9040008D90400086F
:10001000D9040008D9040008D90400080000000031
:10002000000000000000000000000000D9040008EB
:10003000D904000800000000D9040008D904000811
:10004000D9040008D9040008D9040008D90400081C
:10005000D9040008D9040008D9040008D90400080C
:10006000D9040008D9040008D9040008D9040008FC
:10007000D9040008D9040008D9040008D9040008EC
:10008000D9040008D9040008D9040008D9040008DC
:10009000D9040008D9040008D9040008D9040008CC
:1000A000D9040008D9040008D9040008D9040008BC
:1000B000D9040008D9040008D9040008D9040008AC
:1000C000D9040008D9040008D9040008D90400089C
:1000D000D9040008D9040008D9040008D90400088C
:1000E000D9040008D9040008D9040008D90400087C
:1000F000D9040008D9040008D9040008D90400086C
:10010000D9040008D9040008D9040008D90400085B
:10011000D9040008D9040008D9040008D90400084B
:10012000D9040008D9040008D9040008D90400083B
:10013000D90400080000000000000000D9040008F5
:10014000D9040008D9040008D9040008D90400081B
:10015000D9040008D9040008D9040008D90400080B
:10016000D9040008D9040008D9040008D9040008FB
:10017000D9040008D9040008D904000800000000D0
:10018000000000000000000000000000000000006F
:10019000D90400080000000000000000D904000895
:1001A000000000000000000000000000D90400086A
:1001B000D9040008D9040008D9040008D9040008AB
:0401C000D904000856
:1001C40010B5054C237833B9044B13B10448AFF38D
:1001D40000800123237010BD0400002000000000F3
:1001E400DC04000808B5034B1BB103490348AFF313
:1001F400008008BD0000000008000020DC040008A6
:1002040070B50F4B0F4DAB42A3EB050607D0B610EC
:10021400002455F8043B01349847A642F9D800F06D
:100224005BF9094D094B5E1BAB424FEAA60606D0AB
:10023400002455F8043B01349847A642F9D870BD10
:10024400F4040008F4040008F4040008FC040008A2
:10025400704700BF704700BF024B13B1024800F063
:1002640005B87047000000007D0200080023014625
:100274001A46184600F014B838B5074D074C2C1B25
:10028400A41005D0013C55F8043D9847002CF9D141
:10029400BDE8384000F026B900050008FC04000859
:1002A4002DE9F8431B4D0646286898460F469146AB
:1002B400FFF7CEFF184B1C681CB3286865681F2D18
:1002C40022DC4EB96B1C0235636044F82570FFF7DD
:1002D400C1FF0020BDE8F88304EB85010123C1F8C8
:1002E4008890D4F88821AB401A43022EC4F88821A0
:1002F400C1F80881E6D1D4F88C211A43C4F88C21C2
:10030400E0E7064C1C60D8E7FFF7A4FF4FF0FF308E
:10031400E0E700BF000000202400002028000020A7
:1003240080B483B000AF214B1B68204A43F00C0318
:10033400136004237B6017E01D4B1A687B685B0025
:10034400032101FA03F3DB43194913400B60184BF3
:100354001A687B685B00012101FA03F31449134313
:100364000B607B6801337B607B680B2BE4DD114BF6
:100374001B68104A23F0406313600E4B1B680D4A40
:1003840043F0806313600C4B1B680B4A23F030036B
:100394001360094B1B68084A43F01003136000BF45
:1003A4000C37BD465DF8047B704700BF303802400F
:1003B400000802400C0802400C0C024080B483B0D8
:1003C40000AF00237B6002E07B6801337B607B68C5
:1003D400044A9342F8D900BF00BF0C37BD465DF80C
:1003E400047B70473F0D030080B582B000AF00234B
:1003F4007B60FFF795FF204B1B6803F00403002B81
:1004040010D17B6801335A4203F0070302F007025C
:1004140058BF53427B6000BF174B1B6803F00403B3
:10042400002BF9D0154B1B6803F40053002B10D19B
:100434007B6807335A4203F0070302F0070258BFF0
:1004440053427B6000BF0D4B1B6803F40053002B29
:10045400F9D00B4B1B680A4A23F47F631360084BE3
:100464001A687B680433012101FA03F30449134336
:100474000B60FFF7A3FFBEE7100C02401008024018
:10048400140802400D488546AFF300800C480D491E
:100494000D4A002302E0D458C4500433C4188C42DB
:1004A400F9D30A4A0A4C002301E013600432A24241
:1004B400FBD3FFF7A5FEFFF797FFFEE7000002203E
:1004C40000000020040000200005000804000020B3
:1004D400B8010020FEE70000F8B500BFF8BC08BC76
:1004E4009E467047F8B500BFF8BC08BC9E467047EE
:0804F4005D020008E9010008A7
:0404FC00C50100082E
:0405000020000020B7
:040000050800048962
:00000001FF
